{
  "_format": "hh-sol-artifact-1",
  "contractName": "FederatedThreatRegistry",
  "sourceName": "contracts/FederatedThreatRegistry.sol",
  "abi": [
    {
      "inputs": [
        {
          "internalType": "address",
          "name": "_operator",
          "type": "address"
        }
      ],
      "stateMutability": "nonpayable",
      "type": "constructor"
    },
    {
      "anonymous": false,
      "inputs": [
        {
          "indexed": true,
          "internalType": "address",
          "name": "previousOperator",
          "type": "address"
        },
        {
          "indexed": true,
          "internalType": "address",
          "name": "newOperator",
          "type": "address"
        }
      ],
      "name": "OperatorTransferred",
      "type": "event"
    },
    {
      "anonymous": false,
      "inputs": [
        {
          "indexed": true,
          "internalType": "address",
          "name": "deviceId",
          "type": "address"
        },
        {
          "indexed": true,
          "internalType": "bytes32",
          "name": "commitHash",
          "type": "bytes32"
        },
        {
          "indexed": false,
          "internalType": "bytes32",
          "name": "circuitId",
          "type": "bytes32"
        },
        {
          "indexed": false,
          "internalType": "uint256",
          "name": "timestamp",
          "type": "uint256"
        }
      ],
      "name": "ThreatSignalAdded",
      "type": "event"
    },
    {
      "anonymous": false,
      "inputs": [
        {
          "indexed": true,
          "internalType": "bytes32",
          "name": "commitHash",
          "type": "bytes32"
        },
        {
          "indexed": true,
          "internalType": "address",
          "name": "deviceId",
          "type": "address"
        }
      ],
      "name": "ThreatSignalRevoked",
      "type": "event"
    },
    {
      "inputs": [
        {
          "internalType": "address",
          "name": "deviceId",
          "type": "address"
        },
        {
          "internalType": "bytes32",
          "name": "commitHash",
          "type": "bytes32"
        },
        {
          "internalType": "bytes32",
          "name": "circuitId",
          "type": "bytes32"
        }
      ],
      "name": "addThreatSignal",
      "outputs": [],
      "stateMutability": "nonpayable",
      "type": "function"
    },
    {
      "inputs": [
        {
          "internalType": "address",
          "name": "",
          "type": "address"
        }
      ],
      "name": "deviceSignalCount",
      "outputs": [
        {
          "internalType": "uint256",
          "name": "",
          "type": "uint256"
        }
      ],
      "stateMutability": "view",
      "type": "function"
    },
    {
      "inputs": [
        {
          "internalType": "bytes32",
          "name": "commitHash",
          "type": "bytes32"
        }
      ],
      "name": "getThreatSignal",
      "outputs": [
        {
          "components": [
            {
              "internalType": "address",
              "name": "deviceId",
              "type": "address"
            },
            {
              "internalType": "bytes32",
              "name": "commitHash",
              "type": "bytes32"
            },
            {
              "internalType": "bytes32",
              "name": "circuitId",
              "type": "bytes32"
            },
            {
              "internalType": "uint256",
              "name": "timestamp",
              "type": "uint256"
            },
            {
              "internalType": "bool",
              "name": "active",
              "type": "bool"
            }
          ],
          "internalType": "struct FederatedThreatRegistry.ThreatSignal",
          "name": "",
          "type": "tuple"
        }
      ],
      "stateMutability": "view",
      "type": "function"
    },
    {
      "inputs": [
        {
          "internalType": "address",
          "name": "deviceId",
          "type": "address"
        }
      ],
      "name": "isThreatSignaled",
      "outputs": [
        {
          "internalType": "bool",
          "name": "",
          "type": "bool"
        }
      ],
      "stateMutability": "view",
      "type": "function"
    },
    {
      "inputs": [],
      "name": "operator",
      "outputs": [
        {
          "internalType": "address",
          "name": "",
          "type": "address"
        }
      ],
      "stateMutability": "view",
      "type": "function"
    },
    {
      "inputs": [
        {
          "internalType": "bytes32",
          "name": "commitHash",
          "type": "bytes32"
        }
      ],
      "name": "revokeThreatSignal",
      "outputs": [],
      "stateMutability": "nonpayable",
      "type": "function"
    },
    {
      "inputs": [
        {
          "internalType": "bytes32",
          "name": "",
          "type": "bytes32"
        }
      ],
      "name": "threatSignals",
      "outputs": [
        {
          "internalType": "address",
          "name": "deviceId",
          "type": "address"
        },
        {
          "internalType": "bytes32",
          "name": "commitHash",
          "type": "bytes32"
        },
        {
          "internalType": "bytes32",
          "name": "circuitId",
          "type": "bytes32"
        },
        {
          "internalType": "uint256",
          "name": "timestamp",
          "type": "uint256"
        },
        {
          "internalType": "bool",
          "name": "active",
          "type": "bool"
        }
      ],
      "stateMutability": "view",
      "type": "function"
    },
    {
      "inputs": [
        {
          "internalType": "address",
          "name": "newOperator",
          "type": "address"
        }
      ],
      "name": "transferOperator",
      "outputs": [],
      "stateMutability": "nonpayable",
      "type": "function"
    }
  ],
  "bytecode": "0x6080346100f257601f61082a38819003918201601f19168301916001600160401b038311848410176100f7578084926020946040528339810103126100f257516001600160a01b038116908190036100f257801561009e57600080546001600160a01b0319168217815560405191907f74da04524d50c64947f5dd5381ef1a4dca5cba8ed1d816243f9e48aa0b5617ed8180a361071c908161010e8239f35b60405162461bcd60e51b815260206004820152602660248201527f46656465726174656454687265617452656769737472793a207a65726f206f7060448201526532b930ba37b960d11b6064820152608490fd5b600080fd5b634e487b7160e01b600052604160045260246000fdfe6040608081526004908136101561001557600080fd5b600091823560e01c806329605e77146105685780634add187d1461052e578063570ca735146105065780635e916117146102d05780637ea80f071461027257806389a993d414610236578063afd0d9011461018b5763d0417ffd1461007957600080fd5b346101875760203660031901126101875782546001600160a01b0392823592916100a6908516331461064c565b8285526001602052808520938285019081549560ff8716156101315754169460ff191690558385526002602052842080549182610108575b5050507fbd9f28b056cb58365e4313bc0938ab412e133e36c3fb95bc239d1b3936021c588380a380f35b600019830192831161011e5750553880806100de565b634e487b7160e01b865260119052602485fd5b835162461bcd60e51b8152602081870152602a60248201527f46656465726174656454687265617452656769737472793a207369676e616c206044820152696e6f742061637469766560b01b6064820152608490fd5b8280fd5b50903461018757602036600319011261018757808360a09460806101ad6106b0565b82815282602082015282858201528260608201520152833581526001602052206101d56106b0565b91600180861b0382541693848452600183015460208501908152608060ff6002860154938588019485526003870154966060890197885201541695019415158552825195865251602086015251908401525160608301525115156080820152f35b50503461026e57602036600319011261026e5760209181906001600160a01b0361025e610631565b1681526002845220549051908152f35b5080fd5b509034610187576020366003190112610187578060a09383358152600160205220600180851b038154169260018201549260ff6002840154926003850154940154169381519586526020860152840152606083015215156080820152f35b5091903461026e57606036600319011261026e576102ec610631565b6024359160443560018060a01b03809361030a82885416331461064c565b169283156104b4578415610460578486526020906001825260ff888589200154166103fe57876103386106b0565b86815283810188815286820186815260608301914283526080840195600187528b8d5260018852898d209451166bffffffffffffffffffffffff60a01b855416178455516001840155516002830155516003820155019051151560ff8019835416911617905583865260028152828620805490600182018092116103eb577fc6efb940d9c0a9ce962e3f2dd20390f2acc559d1ea3bfbb563a2432bb63b4fa695969798505582519182524290820152a380f35b634e487b7160e01b885260118952602488fd5b835162461bcd60e51b8152808901839052603660248201527f46656465726174656454687265617452656769737472793a20636f6d6d697448604482015275185cda08185b1c9958591e481c9959da5cdd195c995960521b6064820152608490fd5b825162461bcd60e51b8152602081890152602860248201527f46656465726174656454687265617452656769737472793a207a65726f20636f6044820152670dadad2e890c2e6d60c31b6064820152608490fd5b825162461bcd60e51b8152602081890152602660248201527f46656465726174656454687265617452656769737472793a207a65726f2064656044820152651d9a58d9525960d21b6064820152608490fd5b50503461026e578160031936011261026e57905490516001600160a01b039091168152602090f35b50503461026e57602036600319011261026e5760209181906001600160a01b03610556610631565b16815260028452205415159051908152f35b503461018757602036600319011261018757610582610631565b83546001600160a01b0380821693919261059d33861461064c565b169384156105dc5750506001600160a01b031916821783557f74da04524d50c64947f5dd5381ef1a4dca5cba8ed1d816243f9e48aa0b5617ed8380a380f35b906020608492519162461bcd60e51b8352820152602960248201527f46656465726174656454687265617452656769737472793a207a65726f206e656044820152683ba7b832b930ba37b960b91b6064820152fd5b600435906001600160a01b038216820361064757565b600080fd5b1561065357565b60405162461bcd60e51b815260206004820152602f60248201527f46656465726174656454687265617452656769737472793a2063616c6c65722060448201526e34b9903737ba1037b832b930ba37b960891b6064820152608490fd5b6040519060a0820182811067ffffffffffffffff8211176106d057604052565b634e487b7160e01b600052604160045260246000fdfea264697066735822122059715bfa1f2f2408d8c2523e221bb5f6c4fd771e92361c7b8b8b7985e10f3df664736f6c63430008140033",
  "linkReferences": {},
  "deployedLinkReferences": {}
}